:020000040800F2
:1000000090070020B5050008B9030008BB030008ED
:10001000BF030008C3030008C70300080000000076
:10002000000000000000000000000000CB030008FA
:10003000CD03000800000000CF030008D103000832
:10004000CF050008CF050008CF050008CF05000840
:10005000CF050008CF050008CF050008CF05000830
:10006000CF050008CF05000877320008CF0500084B
:10007000CF050008CF050008CF050008CF05000810
:10008000CF050008CF050008CF050008CF05000800
:10009000CF050008CF050008CF0500088132000811
:1000A000CF050008CF050008CF050008CF050008E0
:1000B0002F320008CF050008CF050008CF05000843
:1000C000CF050008CF050008CF050008CF050008C0
:1000D000CF050008492C0008CF0500081B2D00089B
:1000E00083320008CF050008CF050008CF050008BF
:1000F000CF050008CF050008CF050008CF05000890
:10010000CF050008CF050008CF050008CF0500087F
:10011000C72D0008CF050008453200085B320008F3
:10012000CF050008CF050008CF050008CF0500085F
:1001300000F002F800F03AF80AA090E8000C8244BF
:100140008344AAF10107DA4501D100F02FF8AFF29C
:10015000090EBAE80F0013F0010F18BFFB1A43F0A5
:10016000010318473436000054360000103A24BF0B
:1001700078C878C1FAD8520724BF30C830C144BF0C
:1001800004680C607047000000230024002500264E
:10019000103A28BF78C1FBD8520728BF30C148BFEA
:1001A0000B6070471FB51FBD10B510BD03F0BDFA41
:1001B0001146FFF7F7FF00F0EBF803F0DBFA03B4AA
:1001C000FFF7F2FF03BC03F0DFFA000010B50020D8
:1001D00073490870734908704DF2D86072490880FD
:1001E000724908800120724908704FF47A7002F059
:1001F00024FB10BD10B502F0E3FA03F04BF802F057
:1002000049FE02F0D7FA02F0E1FC02F0FEFF02F034
:1002100041FF00214EF65F2003F093F840F21F31BA
:1002200040F2C11003F0EEF8FFF7D0FF10BD10B59B
:1002300060480078FF281CD100205E4908700846FD
:10024000C07D00287ED10846007E002864D1084683
:10025000407E01280ED15349087051490870534817
:100260000388514802884F4801784D48007803F0D0
:100270002DF98CE04F48407E02280FD100204949DB
:10028000087047490870494803884748028845482C
:1002900001784348007803F019F978E04548407E3A
:1002A00003280FD102203F4908703D4908703F489C
:1002B00003883D4802883B4801783948007803F0BC
:1002C00005F964E03B48407E042810D102203449FF
:1002D0000870012033490870344803883248028886
:1002E000084601782E48007803F0F0F84FE03148D6
:1002F000407E05284BD10120294908700220294958
:1003000008702A480388284802880846017824484B
:10031000007803F0DBF83AE02648007E012836D169
:100320002448407E4FF47A71484380B21F490880C8
:100330001D4908801D48038808460288194801782D
:10034000174800E003E0007803F0C0F81FE0194808
:10035000C07D01281AD11748007E20B1012808D09D
:10036000022812D10BE01348417E002003F00BF964
:100370000BE01048417E012003F005F905E00D482F
:10038000417E022003F0FFF800BF00E000BF10BD77
:10039000FFF730FF03E0FFF74AFF03F08FF9FAE7BA
:1003A00000000020010000200200002004000020C6
:1003B00007000020AD000020704700BFFEE700BF2F
:1003C000FEE700BFFEE700BFFEE7704770477047DB
:1003D000704700000CB50020019000906C48006848
:1003E00040F480306A49086000BF6948006800F442
:1003F000003000900198401C0190009818B90198B5
:10040000B0F5A06FF1D16248006800F4003010B17F
:100410000120009001E0002000900098012843D1C5
:100420005C48006840F010005A49086008460068BF
:1004300020F0030008600846006840F002000860F1
:10044000534840685249486008464068486008463A
:10045000406840F4806048600846406820F47C10A2
:1004600048600846406840F4E81048600846006864
:1004700040F08070086000BF4548006800F00070E0
:100480000028F9D04248406820F003004049486005
:100490000846406840F00200486000BF3C484068A1
:1004A00000F00C000828F9D10CBD10B5FFF792FF41
:1004B00010BD10B53648006840F0010034490860AE
:1004C0000846406834490840314948600846006899
:1004D000324908402E4908600846006820F4802010
:1004E00008600846406820F4FE0048604FF41F0092
:1004F0008860FFF7DAFF4FF000602949086010BDFF
:1005000010B5002100200022214B5B6803F00C0194
:1005100021B1042906D0082928D107E0214B224C1B
:10052000236027E01F4B204C236023E0184B5B68BF
:1005300003F47010164B5B6803F48032022303EB64
:10054000904022B9194B4343174C23600DE0104BE8
:100550005B6803F4003323B1144B4343124C236014
:1005600003E0104B4343104C236003E00D4B0E4C53
:10057000236000BF00BF064B5B68C3F303130C4C42
:10058000E15C094B1B68CB40074C236010BD0000A9
:1005900000100240002002400000FFF8FFFFF6FEBE
:1005A00008ED00E000127A003000002000093D0054
:1005B000340000200948804709480047FEE7FEE76D
:1005C000FEE7FEE7FEE7FEE7FEE7FEE7FEE7FEE703
:1005D00004480549054A064B70470000B30400086B
:1005E00031010008900100209007002090030020B6
:1005F0009003002031490143314A1160704770B5C2
:10060000002100230F22C47804B32D4C246804F485
:10061000E064C4F5E064210AC1F10403CA404478EF
:1006200004FA03F18478144021430901254C06782B
:10063000A155047804F01F050124AC4005786D1124
:10064000AD0005F1E025C5F8004109E0047804F0AB
:100650001F050124AC401C4D0678761145F8264054
:1006600070BD1A4A0A400243154B1B1F1A6070479F
:1006700039B1134A121D12680243114B1B1D1A6037
:1006800006E00F4A121D126882430D4B1B1D1A60B3
:100690007047042808D14FF0E021096941F00401B6
:1006A0004FF0E022116107E04FF0E021096921F0ED
:1006B00004014FF0E0221161704700000000FA05CC
:1006C0000CED00E000E400E080E100E080FFFF1FAF
:1006D00010B50446CC48844208D10121042000F022
:1006E0002DFB0021042000F029FB46E0C74884428E
:1006F00008D10121082000F021FB0021082000F092
:100700001DFB3AE0C248844208D10121102000F0CC
:1007100015FB0021102000F011FB2EE0BD488442A3
:1007200008D10121202000F009FB0021202000F049
:1007300005FB22E0B848844208D10121402000F0A6
:10074000FDFA0021402000F0F9FA16E0B348844297
:1007500008D10121802000F0F1FA0021802000F072
:10076000EDFA0AE0AE48844207D10121801500F07D
:10077000E5FA0021A01500F0E1FA10BD10B5012145
:10078000084600F0DBFA0021012000F0D7FA10BD86
:100790002DE9F04102460025002600200023002418
:1007A000002791F803C00CF00F0591F803C00CF07E
:1007B000100CBCF1000F03D091F802C04CEA050503
:1007C00091F800C0BCF1000F31D0146800202BE07C
:1007D0004FF0010C0CFA00F3B1F800C00CEA03066C
:1007E0009E4220D183004FF00F0C0CFA03F7BC435C
:1007F00005FA03FC4CEA040491F803C0BCF1280F8D
:1008000006D14FF0010C0CFA00FCC2F814C00AE04B
:1008100091F803C0BCF1480F05D14FF0010C0CFA60
:1008200000FCC2F810C0401C0828D1D31460B1F8F5
:1008300000C0BCF1FF0F34DD546800202EE000F151
:10084000080C4FF0010808FA0CF3B1F800C00CEAEC
:1008500003069E4221D183004FF00F0C0CFA03F7E0
:10086000BC4305FA03FC4CEA040491F803C0BCF154
:10087000280F05D100F1080C08FA0CF8C2F8148012
:1008800091F803C0BCF1480F07D100F1080C4FF0FC
:10089000010808FA0CF8C2F81080401C0828CED3D2
:1008A0005460BDE8F0814FF6FF7101800221817034
:1008B0000421C17070470246002093680B400BB1C1
:1008C000012000E0002070470146886880B2704730
:1008D00002460020D3680B400BB1012000E000204D
:1008E00070470146C86880B2704701617047416136
:1008F00070470AB1016100E041617047C160704713
:100900004FF480320A438261816182618269826927
:10091000704702460020434B18684FF6807318401A
:1009200040EA021008433F4B186070473E49C861D7
:100930007047F0B50A46002300240021002500F08E
:100940000046B6F1004F02D1364EF16901E0354E56
:100950007168C0F3034583B200F44016B6F5401F3A
:1009600008D121F070612F4E766826F070662D4F09
:100970007E6012E000F48016B6F5801F06D10326D3
:1009800006FA05F4A14341F0706106E0460D360118
:1009900003FA06F6B14341F0706122B1460D36010B
:1009A00003FA06F6314300F00046B6F1004F02D1DB
:1009B0001C4EF16101E01B4E7160F0BD30B50022AC
:1009C0008B071C0F0F2303FA04F2164B08338C100D
:1009D00053F824309343134C08348D1044F82530D9
:1009E00023468C1053F824308C07240F00FA04F4AB
:1009F00023430C4C08348D1044F8253030BD0A498F
:100A0000DC3108607047000000080140000C014024
:100A1000001001400014014000180140001C01407A
:100A2000002001400000014000002042DF48006833
:100A300040F00100DD49086008464068DC49084094
:100A4000DA49486008460068DA490840D749086032
:100A50000846006820F4802008600846406820F4BA
:100A6000FE0048604FF41F0088607047CF49096856
:100A700021F48031CD4A11601146096821F48021AA
:100A80001160B0F5803F03D0B0F5802F0ED106E0A5
:100A9000C649096841F48031C44A116007E0C3497E
:100AA000096841F4A021C14A116000E000BF00BF05
:100AB000704710B501460022002300204A11012A88
:100AC00002D1BA4C236806E0022A02D1B74C236A4D
:100AD00001E0B64C636A01F01F02012494401C40FF
:100AE0000CB1012000E0002010BD38B500200090BE
:100AF0000024002500BF3120FFF7DBFF05460098EA
:100B0000401C00900098B0F5A06F01D0002DF2D0ED
:100B10003120FFF7CEFF08B1012400E00024204679
:100B200038BD01460020A14A106820F0F80040EAD4
:100B3000C10010607047A04908607047024600205D
:100B40009A4B586820F47C1042EA01031843974BF3
:100B50005860704798490866704701460020934ADC
:100B6000506820F003000843506070478F48406889
:100B700000F00C007047014600208C4A506820F0BD
:100B8000F00008435060704701460020874A5068D3
:100B900020F4E06008435060704701460020834A1B
:100BA000506820F4605040EAC1005060704729B19D
:100BB0007E4A527A02437D4B5A7204E07B4A527A53
:100BC00082437A4B5A7270477B49D831086070472C
:100BD00001460020754A506820F4404008435060A8
:100BE00070470021714A20321170704A82F820103B
:100BF000012802D004280AD104E001216B4A2032E6
:100C0000117005E00521694A2032117000E000BF33
:100C100000BF70476949086070476449096A014329
:100C2000624A11627047654944390860704730B5BF
:100C300000210022002400235C4D6D6805F00C01AA
:100C400021B1042905D0082923D105E05C4D0560B8
:100C500022E05B4D05601FE0544D6D6805F4701295
:100C6000524D6D6805F48034022505EB92421CB9A3
:100C7000544D554305600BE04C4D6D6805F400354F
:100C80001DB1504D5543056002E04D4D5543056083
:100C900002E04B4D056000BF00BF444D6D6805F09C
:100CA000F0010909484D6B5C0568DD4045603F4D2A
:100CB0006D6805F4E061090A434D6B5C4568DD40F1
:100CC00085603A4D6D6805F46051C90A3E4D6B5C14
:100CD0004568DD40C560354D6D6805F44041890BC0
:100CE0003A4D6B5CC568B5FBF3F5056130BD29B1C4
:100CF0002E4A526902432D4B5A6104E02B4A526935
:100D000082432A4B5A61704729B1284A92690243AB
:100D1000264B9A6104E0254A92698243234B9A61EB
:100D2000704729B1214AD2690243204BDA6104E0BD
:100D30001E4AD26982431D4BDA61704729B11B4AB2
:100D4000D2680243194BDA6004E0184AD268824341
:100D5000164BDA60704729B1144A12690243134BEB
:100D60001A6104E0114A12698243104B1A617047FC
:100D700012494039086070470F49C86470470B49F1
:100D8000C87170470948406A40F08070074948625E
:100D9000704701460020054A92680A400AB10120C6
:100DA00000E000207047014988727047001002403F
:100DB0000000FFF8FFFFF6FE0000424280044242BE
:100DC00000127A0000093D00440000205400002079
:100DD00010B50446FE48844208D10121C014FFF733
:100DE000ADFF0021E014FFF7A9FFC4E0B4F1804F8C
:100DF00008D101210846FFF7AEFF00210120FFF7CF
:100E0000AAFFB8E0F348844208D101210220FFF78D
:100E1000A2FF00210220FFF79EFFACE0EE488442D3
:100E200008D101210420FFF796FF00210420FFF7DD
:100E300092FFA0E0E948844208D101210820FFF791
:100E40008AFF00210820FFF786FF94E0E4488442EF
:100E500008D101211020FFF77EFF00211020FFF7AD
:100E60007AFF88E0DF48844208D101212020FFF783
:100E700072FF00212020FFF76EFF7CE0DA488442F9
:100E800008D101214014FFF759FF00216014FFF73A
:100E900055FF70E0D548844209D10121C804FFF70D
:100EA0004DFF00214FF40020FFF748FF63E0D048DA
:100EB000844209D101210805FFF740FF00214FF4CA
:100EC0008010FFF73BFF56E0CA48844209D1012158
:100ED0004805FFF733FF00214FF40010FFF72EFF06
:100EE00049E0C548844208D101214020FFF733FF83
:100EF00000214020FFF72FFF3DE0C048844208D189
:100F000001218020FFF727FF00218020FFF723FF2A
:100F100031E0BB48844208D101218015FFF71BFF57
:100F20000021A015FFF717FF25E0B648844209D13C
:100F300001210804FFF702FF00214FF48030FFF782
:100F4000FDFE18E0B048844209D101214804FFF7B2
:100F5000F5FE00214FF40030FFF7F0FE0BE0AB4848
:100F6000844208D101218804FFF7E8FE00214FF4F4
:100F70008020FFF7E3FE10BD00220288944B9842C8
:100F80000ED0994B98420BD0B0F1804F08D0914BC6
:100F9000984205D0904B984202D0904B984204D191
:100FA0004FF68F731A404B881A438D4B984207D0E7
:100FB0008C4B984204D04FF6FF431A40CB881A431B
:100FC00002808B8883850B880385814B98420BD0E8
:100FD000854B984208D08B4B984205D08A4B98425B
:100FE00002D08A4B984201D10B7A03860123838277
:100FF000704770B5002400220023058C4FF6FE7662
:1010000035400584028C8388048B4FF68F752C4005
:10101000B51E2C400D882C43751E2A400D892A438D
:101020004D882A436A4DA8420BD06F4DA84208D084
:10103000744DA84205D0744DA84202D0734DA84209
:1010400013D14FF6F7752A404D892A434FF6FB75A9
:101050002A408D882A434FF6FF652B404FF6FF55F7
:101060002B408D892B43CD892B4383800483CD88EE
:101070008586028470BD70B5002400220023058C93
:101080004FF6EF7635400584028C8388048B48F652
:10109000FF752C404FF6FF452C400D884FF6FF762C
:1010A00006EA05252C434FF6DF752A400D8906EA2E
:1010B00005152A434D8806EA05152A43444DA842E2
:1010C00002D0494DA8421DD14FF67F752A404D8967
:1010D0004FF6FF7606EA05152A434FF6BF752A40FC
:1010E0008D8806EA05152A434FF6FF352B404FF24F
:1010F000FF752B408D8906EA85052B43CD8906EACD
:1011000085052B4383800483CD880587028470BDC9
:1011100070B5002400220023058C4FF6FF66354091
:101120000584028C8388848B4FF68F752C404FF694
:10113000FC752C400D882C434FF6FF552A400D8935
:101140004FF6FF7606EA05252A434D8806EA05256F
:101150002A431F4DA84202D0234DA8421DD14FF271
:10116000FF752A404D894FF6FF7606EA05252A438A
:101170004FF6FF352A408D8806EA05252A434EF6AC
:10118000FF752B404DF6FF752B408D8906EA05153E
:101190002B43CD8906EA05152B4383808483CD88B4
:1011A0008587028470BD70B5002200230024058C61
:1011B0004EF6FF7635400584038C8488828B48F692
:1011C000FF752A404FF6FF452A400D8820E00000B9
:1011D000002C01400004004000080040000C0040CA
:1011E000001000400014004000340140004C014059
:1011F000005001400054014000180040001C004015
:1012000000200040004001400044014000480140EF
:101210004FF6FF7606EA05252A434DF6FF752B406B
:101220000D8906EA05352B434D8806EA05352B4323
:10123000FA4DA84202D0FA4DA84208D14BF6FF75EC
:101240002C408D894FF6FF7606EA85152C43848065
:101250008283CD88A0F84050038470BD828B4FF20A
:10126000FF331A408283828B4FF6FF7303EA012318
:101270001A4382837047F0B50C46154600220021C0
:101280000026078C4EF6FF7C07EA0C070784828B4A
:10129000018C4FF6FF7707EA043640F6FF473A40E5
:1012A0004FF6FF7707EA05273A434FF6FF7707EA3D
:1012B00003373A43D94FB8420ED0D94FB8420BD07A
:1012C000B0F1804F08D0D74FB84205D0D64FB842C2
:1012D00002D0D64FB84206D14DF6FF77394046F4DA
:1012E0008057394305E047F6FF57394044F48057AB
:1012F000394382830184F0BD828B4FF6F3731A4029
:101300008283828B0A4382837047F0B50C46154670
:10131000002200210026078C4FF6FF6C07EA0C071D
:101320000784828B018C4FF6FF7707EA04264FF67D
:101330000C773A404FF6FF7707EA03172F433A43FB
:10134000B64FB8420ED0B64FB8420BD0B0F1804F76
:1013500008D0B44FB84205D0B34FB84202D0B34F13
:10136000B84206D14FF6FF57394046F480773943EB
:1013700005E04FF2FF57394044F4807739438283C8
:101380000184F0BD028B4FF2FF331A400283028BBF
:101390004FF6FF7303EA01231A4302837047F0B547
:1013A0000C461546002200210026078C4FF6EF7CE4
:1013B00007EA0C070784028B018C4FF6FF7707EAD8
:1013C000041640F6FF473A404FF6FF7707EA033727
:1013D0003A434FF6FF7707EA05273A438F4FB84263
:1013E0000ED08F4FB8420BD0B0F1804F08D08D4F48
:1013F000B84205D08C4FB84202D08C4FB84206D1CB
:101400004FF6DF77394046F01007394305E04FF6D5
:101410005F77394044F01007394302830184F0BDFF
:10142000028B4FF6F3731A400283028B0A43028346
:101430007047F0B50C46154600220021068C4FF689
:10144000FE773E400684028B018C4FF60C763240CC
:101450007E1C06EA03162E433243704EB0420ED075
:101460006F4EB0420BD0B0F1804F08D06D4EB042FD
:1014700005D06D4EB04202D06C4EB04206D14FF650
:10148000FD76314044F00106314305E04FF6F57634
:10149000314044F00106314302830184F0BD70B550
:1014A00005460C465D4885420ED05D4885420BD00E
:1014B000B5F1804F08D05B48854205D05A48854237
:1014C00002D05A48854200D100E000BF208850B9C0
:1014D0002389A28861882846FFF7ABFFE188284668
:1014E000FFF79EFF25E0208804280AD12389A288DF
:1014F00061882846FFF753FFE1882846FFF742FF3F
:1015000017E0208808280AD12389A2886188284604
:10151000FFF7FBFEE1882846FFF7EEFE09E023898E
:10152000A28861882846FFF7A6FEE1882846FFF7D3
:1015300095FE70BD2DE9F04105460C4600260127B9
:10154000608808B9022600E00026A088012801D1A1
:10155000022700E001272088A0B92389A28861889A
:101560002846FFF766FFE1882846FFF759FF2389E1
:101570003A4631462846FFF712FFE1882846FFF732
:1015800001FF13E02389A28861882846FFF707FF3F
:10159000E1882846FFF7F6FE23893A463146284679
:1015A000FFF747FFE1882846FFF73AFFBDE8F081E3
:1015B0000A884B881A438B881A43CB881A430B89B5
:1015C0001A434B891A438B891A43A0F84420704769
:1015D0004FF6FF71818000210180C180418001723E
:1015E00070470021018041808180C180018141815B
:1015F0008181C1817047002101804180012181806A
:101600000021C180018170470021018041808180DB
:10161000C18001814181818170470000002C01401F
:10162000003401400004004000080040000C00406D
:1016300021B1028842F00102028004E002884FF6E4
:10164000FE731A400280704731B1B0F8442042F472
:101650000042A0F8442005E0B0F84420C2F30E0296
:10166000A0F8442070471AB183890B43838102E0BC
:1016700083898B43838170478182704741EA0203EB
:10168000A0F8483070471AB183890B43838102E088
:1016900083898B438381704701894FF6F87211402B
:1016A000018170470A46002101894FF68F73194066
:1016B00011430181704730B504460D462946204646
:1016C000FFF7F0FF208940F00700208130BD2DE9B1
:1016D000F04104460D4616461F46602D06D13B4696
:1016E000012231462046FFF75AFE05E03B46012223
:1016F00031462046FFF79DFE29462046FFF7D2FFE0
:10170000208940F007002081BDE8F08130B50C460B
:1017100000210189C9B24FF6FF7505EA032515437B
:1017200025432943018130BD2DE9F04105460E4690
:1017300017469846002443463A4631462846FFF766
:10174000E5FF2C894FF6F870044044F007044FF68B
:101750008F70044044F070042C81BDE8F081F0B536
:1017600004460D4616461F463B463246294620464D
:10177000FFF7CCFF208940F480402081F0BD018537
:10178000828270470A46002101884FF68F73194004
:10179000114301807047F0B50C4615461E460021E6
:1017A000002200230189028B038C4FF6F877394021
:1017B00021434FF6FC473A4040F201173A434FF6B7
:1017C000DD773B404FF6FF7707EA06172F433B4391
:1017D000018102830384F0BD0A460021018B4FF68C
:1017E0008F7319401143018370470A460021018B12
:1017F00048F6FF7319404FF6FF7303EA02231943BB
:10180000018370470A460021818B4FF68F73194080
:101810001143818370470A460021818B48F6FF738C
:1018200019404FF6FF7303EA02231943818370477F
:1018300021B1028842F08002028004E002884FF663
:101840007F731A400280704721B1828842F00402FF
:10185000828004E082884FF6FB731A4082807047D2
:1018600021B1828842F00802828004E082884FF62B
:10187000F7731A408280704721B1828842F00102DA
:10188000828004E082884FF6FE731A40828070479F
:101890000A460021018B4FF6F7731940114301836B
:1018A00070470A460021018B4FF2FF7319404FF633
:1018B000FF7303EA02231943018370470A4600219C
:1018C000818B4FF6F77319401143818370470A46A5
:1018D0000021818B4FF2FF7319404FF6FF7303EA2B
:1018E00002231943818370470A460021018B4FF67A
:1018F000FB7319401143018370470A460021018B95
:101900004FF6FF3319404FF6FF7303EA02231943E2
:10191000018370470A460021818B4FF6FB73194003
:101920001143818370470A460021818B4FF6FF33B4
:1019300019404FF6FF7303EA02231943818370476E
:101940000A460021018B4FF67F7319401143018332
:1019500070470A460021018BC1F30E014FF6FF7359
:1019600003EA02231943018370470A460021818B51
:101970004FF67F7319401143818370470A46002157
:10198000818BC1F30E014FF6FF7303EA0223194363
:10199000818370470A460021018C4FF6FD73194080
:1019A0001143018470470A460021018C4FF6F773FA
:1019B00019401143018470470A460021018C4FF6FB
:1019C000DF7319404FF6FF7303EA021319430184D2
:1019D00070470A460021018C4FF67F7319404FF67D
:1019E000FF7303EA02131943018470470A4600217A
:1019F000018C4FF6FF5319404FF6FF7303EA0223A1
:101A00001943018470470A460021018C4FF2FF738D
:101A100019404FF6FF7303EA02231943018470470C
:101A20000A460021018C4DF6FF7319404FF6FF73F3
:101A300003EA023319430184704730B500230124BF
:101A40008C40A3B2048C9C430484048C02FA01F5FC
:101A5000ADB22C43048430BD30B5002304248C4047
:101A6000A3B2048C9C430484048C02FA01F5ADB249
:101A70002C43048430BD70B5034600200024184672
:101A8000183001258D40ACB21D8CA5431D8409B1D1
:101A9000082909D100EB6100056825F07005056093
:101AA0000568154305600EE00D1FC5F34E0528447B
:101AB000056825F4E045056005684FF6FF7606EAFF
:101AC00002263543056070BD21B1028842F0020252
:101AD000028004E002884FF6FD731A4002807047CE
:101AE00021B1028842F00402028004E002884FF62D
:101AF000FB731A400280704721B1828842F0800255
:101B0000828004E082884FF67F731A40828070479B
:101B100002884FF6F7731A40028002880A43028057
:101B2000704782884FF68F731A40828082880A43FA
:101B30008280704702894FF6F8731A400281028949
:101B40000A430281704702894FF67F731A4002816F
:101B500002890A43028170478184704781857047FA
:101B6000818670470187704781877047A0F84010D1
:101B7000704702884FF6FF431A40028002880A43EA
:101B8000028070470146888E70470146088F704773
:101B90000146888F70470146B1F840007047014602
:101BA000888C70470146088D704702460020138AD2
:101BB0000B400BB1012000E000207047CA430282B5
:101BC000704730B50246002000230024158A05EA3C
:101BD0000103958905EA010413B10CB1012000E06D
:101BE000002030BDCA4302827047000010B5044691
:101BF000FB48844209D101218803FFF79FF80021A7
:101C00004FF48040FFF79AF832E0F648844209D159
:101C100001214804FFF79FF800214FF40030FFF73F
:101C20009AF825E0F048844209D101218804FFF7A1
:101C300092F800214FF48020FFF78DF818E0EB4870
:101C4000844209D10121C804FFF785F800214FF42F
:101C50000020FFF780F80BE0E548844208D101211D
:101C60000805FFF778F800214FF48010FFF773F8AC
:101C700010BD2DE9F04786B005460E460024A24669
:101C800000BFA1460027B08900B100BF2F462C8AB3
:101C90004CF6FF700440F08804432C82AC894EF669
:101CA000F3100440B0883189084371890843044324
:101CB000AC81AC8A4FF6FF400440B0890443AC824B
:101CC00001A8FEF7B4FFC648874202D1DDF810A094
:101CD00001E0DDF80CA0A88900F4004040B10AEB57
:101CE000CA0000EB0A1031684900B0FBF1F807E0C8
:101CF0000AEBCA0000EB0A1031688900B0FBF1F86A
:101D00006420B8FBF0F004012009642101FB108974
:101D1000A88900F4004040B1322000EBC900B0FBBC
:101D2000F1F000F00700044308E0322000EB091056
:101D30006421B0FBF1F000F00F0004432C8106B0E9
:101D4000BDE8F0874FF41651016000218180C18009
:101D500001810C21418100218181704710B502462B
:101D60000020108A4FF2FF0318400B884C88234351
:101D70008C882343CC8823431843108210BD002154
:101D8000018041808180C180704721B1828942F405
:101D90000052828104E082894DF6FF731A408281ED
:101DA0007047F0B50346002400260025002040F6C9
:101DB0006A17B94200D100BF1846C1F3421401F0BE
:101DC0001F06012707FA06F5012C01D10C3004E0AB
:101DD000022C01D1103000E014301AB107682F43F3
:101DE000076002E00768AF430760F0BD1AB1838A5D
:101DF0000B43838202E0838A8B4383827047028A8B
:101E00004FF6F0731A400282028A0A430282704738
:101E100082894FF2FF731A40828182890A4382814C
:101E2000704721B1828942F00202828104E08289F6
:101E30004FF6FD731A4082817047028A4FF6DF73B6
:101E40001A400282028A0A430282704721B1028A42
:101E500042F48042028204E0028A4BF6FF731A4089
:101E600002827047C1F30802828070470146888869
:101E7000C0F308007047818941F0010181817047FA
:101E8000028BD2B20283028B42EA012202837047A4
:101E9000028B02F47F420283028B0A430283704763
:101EA00021B1828A42F02002828204E0828A4FF6C7
:101EB000DF731A408282704721B1828A42F0100299
:101EC000828204E0828A4FF6EF731A408282704762
:101ED00021B1828A42F00802828204E0828A4FF6AF
:101EE000F7731A408282704721B1828942F400421E
:101EF000828103E08289C2F30E028281704721B1A0
:101F0000828A42F40062828204E0828A4FF2FF7386
:101F10001A4082827047828A4FF6FB731A4082828F
:101F2000828A0A438282704721B1828A42F0020289
:101F3000828204E0828A4FF6FD731A4082827047E3
:101F400002460020B1F5007F00D100BF13880B408E
:101F50000BB1012000E00020704701F40072B2F5DF
:101F6000007F00D100BFCA430280704770B50246AF
:101F7000002400230025002040F66A16B14200D15B
:101F800000BFC1F3421501F01F03012606FA03F357
:101F9000012D02D19689334006E0022D02D1168A26
:101FA000334001E0968A33400C12012606FA04F40D
:101FB0001688344013B10CB1012000E0002070BD40
:101FC00010B50022002340F66A14A14200D100BFE0
:101FD0000A1201249440A3B2DC43048010BD000027
:101FE000003801400044004000480040004C0040E0
:101FF0000050004010B50446FA48844208D101213F
:102000004015FEF79BFE00216015FEF797FE17E0D6
:10201000F548844208D101210015FEF78FFE00210A
:102020002015FEF78BFE0BE0F048844208D1012119
:10203000C803FEF783FE00214FF40040FEF77EFE4A
:1020400010BD30B50246002000235068E84C204007
:102050000D790C6844EA0524204350609068E54CF3
:102060002040D1E902542C434D7944EA45042043F1
:102070009060D06A20F470000C7C641EE4B22343AC
:1020800040EA0350D06230BD00210160017141710E
:102090008160C16001210174704721B1826842F002
:1020A0000102826003E0826822F0010282607047D0
:1020B00021B1826842F48072826003E0826822F477
:1020C00080728260704710B50023CBB21AB14468A9
:1020D0001C43446002E044689C43446010BD816836
:1020E00041F0080181607047014600208A6802F0D3
:1020F00008020AB1012000E000207047816841F029
:10210000040181607047014600208A6802F00402E1
:102110000AB1012000E00020704721B1826842F43A
:10212000A002826003E0826822F4A002826070470D
:10213000014600208A6802F480020AB1012000E012
:102140000020704710B50A4600210023416821F4A1
:102150006041531E41EA4331416010BD21B14268E4
:1021600042F40062426003E0426822F4006242608E
:102170007047F0B504460D4600200021092D11DD01
:10218000E068A5F10A0606EB4607072606FA07F1FE
:102190008843A5F10A0606EB460603FA06F1084352
:1021A000E0600CE0206905EB4507072606FA07F119
:1021B000884305EB450603FA06F108432061072A28
:1021C0000FDA606B561E06EB86071F2606FA07F12C
:1021D0008843561E06EB860605FA06F1084360633F
:1021E00022E00D2A0FDA206BD61F06EB86071F268A
:1021F00006FA07F18843D61F06EB860605FA06F1B4
:102200000843206310E0E06AA2F10D0606EB8607A2
:102210001F2606FA07F18843A2F10D0606EB860693
:1022200005FA06F10843E062F0BD21B1826842F48C
:102230008012826003E0826822F48012826070471C
:102240000146C86C80B2704766484C3000687047E1
:1022500021B1426842F48062426003E0426822F4A5
:1022600080624260704721B1426842F4805242600D
:1022700003E0426822F48052426070470A4600211F
:10228000816821F4E04111438160704721B1826887
:1022900042F40042826003E0826822F400428260DD
:1022A000704721B1826842F40212826003E08268C2
:1022B00022F4021282607047014600208A6802F40C
:1022C00000120AB1012000E000207047F0B504467A
:1022D0001546002000220026092911DDE068A1F141
:1022E0000A0707EB470C072707FA0CF29043A1F106
:1022F0000A0707EB470703FA07F21043E0600CE018
:10230000206901EB410C072707FA0CF2904301EB1F
:10231000410703FA07F210432061A06BC0F3015696
:10232000EF1C06F1010CA7EB0C0707EB870C1F272E
:1023300007FA0CF29043EF1C06F1010CA7EB0C0717
:1023400007EB870701FA07F21043A063F0BD10B551
:102350000A4600210023816B21F44011531E41EAFB
:102360000351816310BD08B5002300930090009BCA
:102370000B440093009B1A6008BD08B5024600207C
:102380000090009201F12800009B184400900098F2
:10239000006880B208BD0A4600214168164B19400A
:1023A0001143416070474162826270470A460021D2
:1023B000416821F01F0111434160704740B1094954
:1023C0000831096841F40001064A0832116007E04B
:1023D00004490831096821F40001024A08321160F9
:1023E000704700000024014000280140003C0140EB
:1023F000FFFEF0FFFDF7F1FFFFFD3FFF024600206B
:1024000013680B400BB1012000E000207047CA4365
:102410000260704770B502460020002300240B12B2
:102420005568CEB205EA060415681D4015B10CB119
:10243000012000E0002070BD00220A12D343036097
:102440007047000001684FF6FE72114001600021E4
:10245000016041608160C1608D49884208D18C492A
:102460000839496841F00F01894A083A51608AE009
:1024700087491431884208D185490839496841F0B3
:10248000F001834A083A51607DE081492831884251
:1024900008D17F490839496841F470617C4A083A9B
:1024A000516070E07A493C31884208D17849083956
:1024B000496841F47041764A083A516063E07449D2
:1024C0005031884208D172490839496841F4702175
:1024D0006F4A083A516056E06D496431884208D12C
:1024E0006B490839496841F47001694A083A5160FA
:1024F00049E067497831884208D165490839496817
:1025000041F07061624A083A51603CE0614988429A
:1025100006D1011F096841F00F01021F116032E06E
:102520005C491431884208D15A49091F096841F0B1
:10253000F001584A121F116025E05649283188429F
:1025400008D15449091F096841F47061514A121FAA
:10255000116018E04F493C31884208D14D49091FAC
:10256000096841F470414B4A121F11600BE0494960
:102570005031884207D14749091F096841F4702149
:10258000444A121F1160704710B50022026847F6D6
:10259000F0739A430C6A8B6823430C6923434C699C
:1025A00023438C692343CC6923434C6A23438C6ABD
:1025B00023431A430260CB6843600B6883604B6817
:1025C000C36010BD0021016041608160C160016194
:1025D00041618161C161016241628162704721B1E3
:1025E000026842F00102026004E002684FF6FE73E6
:1025F0001A40026070471AB103680B43036002E09F
:1026000003688B4303607047416070470146486828
:1026100080B2704701460020002201F080531BB1B8
:102620001C4B083B1A6802E0194B083B1A6802EA87
:1026300001030BB1012000E00020704700F0805141
:1026400019B11449091F086002E0114908394860AE
:10265000704701460020002201F080531BB10D4B52
:10266000083B1A6802E00A4B083B1A6802EA0103B9
:102670000BB1012000E00020704700F0805119B13B
:102680000449091F086002E00149083948607047A1
:102690000800024008040240002044490860091D67
:1026A0000860091D0860091D086041483F49143150
:1026B0000860704700213D498279002A3AD00A46D5
:1026C000126803689A430B461A600A1D1268036871
:1026D0009A430B1D1A60027911440A6803681A4371
:1026E0000A60324A0832126803689A432F4B083353
:1026F0001A601A1D126803689A432C4B0C331A6037
:102700004279102A0ED11A1F126803681A43274B08
:1027100008331A601A1D126803681A43234B0C33DE
:102720001A600DE02149427911440A6803681A438E
:102730000A6005E0027911440A6803689A430A6056
:1027400070470021016001710C21417100218171EC
:1027500070471649103109680143144A103211605C
:10276000704701460020114A143212680A400AB12B
:10277000012000E0002070470C49143108607047C8
:10278000014600200022094B1B6803EA0102074BA7
:1027900014331B680B4013B10AB1012000E0002084
:1027A000704702491431086070470000000401407E
:1027B000FFFF0F0010B54FF4E060FDF71BFF10BDE9
:1027C00010B56FF00400FDF764FF2E4800682E4935
:1027D000B0FBF1F02D4908700846007800EB40018D
:1027E000C1EBC0104FF6FF7101EAC0002849088014
:1027F00010BD0146254A12784A434FF0E0235A6142
:1028000000229A611A46126942F001021A6100BF61
:102810004FF0E022106900F001021AB100F480329A
:10282000002AF5D04FF0E022126922F001024FF0A9
:10283000E0231A6100229A6170470146144A128807
:102840004A434FF0E0235A6100229A611A46126906
:1028500042F001021A6100BF4FF0E022106900F05F
:1028600001021AB100F48032002AF5D04FF0E022C4
:10287000126922F001024FF0E0231A6100229A61EE
:10288000704700003000002000127A00580000203D
:102890005A00002010B586B00446012144F204001D
:1028A000FEF732FAFE48FFF7A1F94FF40070ADF8D9
:1028B000140003208DF8160018208DF8170005A9C4
:1028C000F848FDF765FF4FF48060ADF81400042070
:1028D0008DF8170005A9F348FDF75AFF25208DF85C
:1028E000000000208DF8010004208DF80200012076
:1028F0008DF803006846FDF782FE01940020ADF8D4
:102900000800ADF80A00ADF80C00ADF810000C207E
:10291000ADF80E0001A9E248FFF7ABF9012240F241
:102920002551DF48FFF73DFA0121DD48FFF72DFA79
:1029300006B010BD10B586B0044601210420FEF794
:10294000E3F901214804FEF7ECF9D748FFF74EF907
:102950000420ADF8140003208DF8160018208DF81F
:10296000170005A9D148FDF713FF0820ADF81400A2
:1029700004208DF8170005A9CC48FDF709FF262093
:102980008DF8000000208DF8010005208DF8020070
:1029900001208DF803006846FDF731FE0194002008
:1029A000ADF80800ADF80A00ADF80C00ADF8100065
:1029B0000C20ADF80E0001A9BB48FFF75AF901221F
:1029C00040F22551B848FFF7ECF90121B648FFF76E
:1029D000DCF906B010BD10B586B004460121082010
:1029E000FEF792F901218804FEF79BF9B048FFF742
:1029F000FDF84FF48060ADF8140003208DF8160048
:102A000018208DF8170005A9A848FDF7C1FE4FF45E
:102A10000060ADF8140004208DF8170005A9A34844
:102A2000FDF7B6FE27208DF8000000208DF801008C
:102A300006208DF8020001208DF803006846FDF79E
:102A4000DEFD01940020ADF80800ADF80A00ADF8F5
:102A50000C00ADF810000C20ADF80E0001A9944850
:102A6000FFF707F9012240F225519148FFF799F944
:102A700001218F48FFF789F906B010BD10B586B067
:102A8000044601211020FEF73FF90121C804FEF79A
:102A900048F98848FFF7AAF84FF48060ADF81400B1
:102AA00003208DF8160018208DF8170005A982481C
:102AB000FDF76EFE4FF40060ADF8140004208DF8B1
:102AC000170005A97C48FDF763FE34208DF800004F
:102AD00000208DF8010007208DF8020001208DF8FC
:102AE00003006846FDF78BFD01940020ADF8080057
:102AF000ADF80A00ADF80C00ADF810000C20ADF8F0
:102B00000E0001A96B48FFF7B4F8012240F22551ED
:102B10006848FFF746F901216648FFF736F906B025
:102B200010BD10B586B0044601211020FEF7ECF868
:102B300001212020FEF7E8F801210805FEF7F1F851
:102B40005B48FFF753F84FF48050ADF814000320B2
:102B50008DF8160018208DF8170005A95648FDF7C6
:102B600017FE0420ADF814008DF8170005A953488E
:102B7000FDF70EFE25208DF8000000208DF80100E5
:102B800008208DF8020001208DF803006846FDF74B
:102B900036FD01940020ADF80800ADF80A00ADF84C
:102BA0000C00ADF810000C20ADF80E0001A9404853
:102BB000FFF75FF8012240F225514148FFF7F1F895
:102BC00001213F48FFF7E1F806B010BD10B54FF402
:102BD0001650FFF75FFE4FF41650FFF7FCFE4FF460
:102BE0001650FFF74BFF10BDC1F30802828000BFF3
:102BF000028802F04002002AFAD0704738B5054634
:102C00000B46180A8DF80000D8B28DF80100002498
:102C100006E01DF804102846FFF7E6FF601CC4B26A
:102C2000022CF6DB38BD10B50B46002109E05C5CD8
:102C3000848000BF048804F04004002CFAD04C1CAF
:102C4000A1B29142F3DB10BD70B5002540F22551D1
:102C50001348FFF78BF900285CD01148FFF706F9FD
:102C6000C5B21848007838B9552D04D1012015494E
:102C70000870154845754EE01248007840B3124878
:102C8000153012490978491C455410480078401CF9
:102C90000E49087008460078092824D10A4818E02F
:102CA000003801400008014000440040000C014091
:102CB00000480040004C004000100140001401405A
:102CC000005000405C000020840000205D000020D7
:102CD00020E0807FAA2806D1002008706149087092
:102CE000FF206149087061480078092812D15E48C8
:102CF000807FAA280ED000205C49087059490870CE
:102D0000002405E00021584815300155601CC4B26C
:102D10000A2CF7DB00BF002570BD10B5002440F27F
:102D200025515348FFF722F9002849D05048FFF7B2
:102D30009DF8C4B24F48007868B94F480078002821
:102D40003ED1552C06D14D48447501204A490870A2
:102D50004849087035E04748007888B3AA2C19D153
:102D60004748007803280DD10020424908704348A5
:102D7000847500204049087041490870FF203F4990
:102D800008701DE000203B4908703B4908703C4931
:102D9000087015E03948153039490978891C4454C0
:102DA00037480078401C36490870084600780328E8
:102DB00006DD00202F4908702F490870304908703F
:102DC00000BF002410BD70B5002540F225512D48EC
:102DD000FFF7CCF8002842D02A48FFF747F8C5B2E1
:102DE0002948007838B9552D04D1012026490870AA
:102DF0002648457534E02448007880B323481530D0
:102E000023490978491C455421480078401C204931
:102E100008700846007809280AD11C48807FAA2833
:102E200006D10020087018490870FF201749087063
:102E300017480078092812D11448807FAA280ED09C
:102E400000201349087010490870002405E0002193
:102E50000E4815300155601CC4B20A2CF7DB00BFC8
:102E6000002570BD5C000020840000205D00002073
:102E7000004800405E0000205F000020AD00002000
:102E800060000020004C004061000020D6000020BF
:102E90006200002000B587B001214FF40470FDF7F7
:102EA00033FF4FF40040FDF793FE0720ADF8040018
:102EB00000208DF8070001A93D48FDF769FC00F0EE
:102EC000B5F83C48FFF796F80020029001208DF8F5
:102ED0000C008DF80D004FF4602004900020059048
:102EE00003208DF8180002A93248FFF7AAF807233B
:102EF00001220A212F48FFF73CF9072302220B2168
:102F00002C48FFF736F9072303220C212948FFF745
:102F100030F901212748FFF7CBF801212548FFF7B9
:102F2000BCF82448FFF7DBF800BF2248FFF7DCF8C5
:102F30000028FAD11F48FFF7E1F800BF1D48FFF74E
:102F4000E2F80028FAD101211A48FFF7E6F807B0A5
:102F500000BD10B504460723012221461548FFF79E
:102F600008F901211348FFF7D8F800BF02211148E2
:102F7000FFF744FA0028F9D00E48FFF761F910BDB9
:102F80002DE9F04107460C460025002608E03846AA
:102F9000FFF7DFFF05440520FFF74FFC701CC6B2AA
:102FA000A642F4DBB5FBF4F080B2BDE8F08100008E
:102FB00000100140002401402DE9F04107460D4674
:102FC00016461C4601210846FDF791FE3846FFF7DC
:102FD00039FA2B4804802B480560466000202949B7
:102FE00088600846C4600020086180204861400075
:102FF00088618000C86120200862C001486200200A
:1030000088623846FFF7C0FABDE8F08110B5044683
:1030100000212046FFF7E3FA194801881A48FFF714
:10302000F3FA01212046FFF7DAFA10BD10B50121AD
:103030000846FDF75CFE1448FFF704FA13481149EF
:10304000086013484860002088600320C8600020A2
:10305000086180204861400088618000C8612020AC
:103060000862C0014862002088620748FFF78CFAB6
:1030700001210548FFF7B3FA10BD0020704700009A
:103080006400002000010020080002404C240140A0
:10309000660000201FB501210846FDF735FE01211D
:1030A0008020FDF731FE1020ADF80C0048208DF88F
:1030B0000F0003A97348FDF76BFB04210520FDF702
:1030C0007DFC1020019000208DF808000C208DF868
:1030D000090001208DF80A0001A8FFF7EBFA0A2089
:1030E0008DF8000000208DF801008DF8020001200D
:1030F0008DF803006846FDF782FA1FBD7FB50546CF
:103100000C4601210846FDF70CFEADF80850ADF85D
:1031100004400020ADF80A00ADF8060001A94FF008
:103120008040FDF729FF012211469007FEF79BFA28
:103130001C208DF8000000208DF8010001208DF882
:1031400002008DF803006846FDF759FA012188074F
:10315000FEF76EFA7FBD7FB505460C4601211020B3
:10316000FDF7DFFDADF80850ADF804400020ADF8E4
:103170000A00ADF8060001A94348FDF7FDFE012253
:1031800011464148FEF76FFA36208DF80000002006
:103190008DF8010002208DF8020001208DF8030057
:1031A0006846FDF72CFA01213748FEF741FA7FBD4A
:1031B0007FB505460C4601212020FDF7B2FDADF894
:1031C0000850ADF804400020ADF80A00ADF8060044
:1031D00001A92E48FDF7D0FE012211462B48FEF72B
:1031E00042FA37208DF8000000208DF801000320FE
:1031F0008DF8020001208DF803006846FDF7FFF905
:1032000001212248FEF714FA7FBD10B56321112079
:10321000FFF774FF41F61F4140F2CF70FFF79BFFAD
:1032200041F61F4144F61F60FFF7C2FF10BD10B505
:1032300001218807FEF7C5FC18B101218807FEF7B8
:10324000D1FC10BD10B501210F48FEF7BAFC18B132
:1032500001210D48FEF7C6FC10BD10B501210B4839
:10326000FEF7AFFC30B101210848FEF7BBFCFF20A0
:103270000749087010BD10B51020FFF792FA10BD75
:1032800070477047001C01400010004000140040CF
:103290006C00002008B501214FF4AC70FDF734FD3F
:1032A0004FF4C040ADF8000010208DF8030003205B
:1032B0008DF802006946DA48FDF76AFA4FF4C0411A
:1032C000D748FDF714FB3C20ADF8000010208DF826
:1032D000030003208DF802006946D148FDF758FA33
:1032E0003C21CF48FDF701FB01210846FDF70CFD0D
:1032F0000121CC48FDF71DFB3820ADF8000010205F
:103300008DF8030003208DF802006946C648FDF7DA
:103310003FFA3821C448FDF7E8FA4FF40040ADF811
:10332000000010208DF8030003208DF8020069468C
:10333000BE48FDF72DFA4FF40041BC48FDF7D5FA21
:1033400008BD30B589B005460C4601210420FDF7C3
:10335000E8FC01210820FDF7D7FC4FF47070ADF8B0
:10336000200018208DF8230003208DF8220008A9E2
:10337000AD48FDF70DFAADF81850ADF81440002037
:10338000ADF81A00ADF8160005A9A948FDF7F4FD3F
:103390007020ADF804000120ADF806000020ADF863
:1033A0000A000220ADF80C0001A9A148FDF721FE9A
:1033B00001A99F48FDF75FFE01A99D48FDF7A8FE02
:1033C00001A99B48FDF7EFFE01219948FEF73CF962
:1033D00008219748FEF75CFA08219548FEF761FA44
:1033E00008219348FEF76AFA08219148FEF76FFA20
:1033F00001218F48FEF71CFA01218D48FEF718F9CC
:1034000009B030BD30B589B005460C4601214803EE
:10341000FDF77AFC01211120FDF776FC4FF4707066
:10342000ADF8200018208DF8230003208DF822002D
:1034300008A98048FDF7ACF97F48FDF7C9FCADF855
:103440001850ADF814400020ADF81A00ADF8160081
:1034500005A97948FDF790FD7020ADF80400012022
:10346000ADF806000020ADF80A000220ADF80C000F
:1034700001A97148FDF7BDFD01A96F48FDF7FBFDEE
:1034800001A96D48FDF744FE01A96B48FDF78BFECD
:1034900001216948FEF7D8F808216748FEF7F8F9D6
:1034A00008216548FEF7FDF908216348FEF706FA92
:1034B00008216148FEF70BFA01215F48FEF7B8F9D1
:1034C00001215D48FEF7B4F809B030BD2DE9F041A7
:1034D00004460D4616461F4658480078A04218D0AC
:1034E0002CB90120564908605649C1F88801012CC1
:1034F00006D100205249086001205249C1F88801D4
:10350000022C06D101204E49086000204D49C1F827
:1035100088014D480078A8421BD035B901204849A0
:10352000083108604749C1F89001012D07D10020FA
:1035300043490831086001204249C1F89001022D39
:1035400007D101203E490831086000203D49C1F8FB
:1035500090013E480088B04203D031463448FEF71F
:1035600003FB3B480088B84203D039463048FEF799
:10357000FDFA3648068036480780304804703248E5
:103580000570BDE8F08170B505460C46B42C2EDC04
:1035900025B1012D0FD0022D27D119E02D4800882B
:1035A000A04205D004F12D0081B22348FEF7D8FADD
:1035B000284804801AE028480088A04205D004F179
:1035C0002D0081B21C48FEF7CDFA234804800DE09F
:1035D00022480088A04205D004F12D0081B216488F
:1035E000FEF7C2FA1D48048000E000BF00BF70BDB6
:1035F00070B504460D461A480088A04203D0214603
:103600000B48FEF7B1FA17480088A84203D02946B4
:103610000748FEF7ABFA124804801248058070BDD7
:103620000018014000023000000C01400020014061
:103630000008004000100140003401406E000020EE
:103640008C012342000023426F0000207000002004
:103650007200002074000020760000207800002016
:103660007A0000207C0000201EB500230093019307
:10367000029300220FE0002109E05DF82130234C85
:1036800034F8114023444DF821304B1CD9B20329A2
:10369000F3DB531CDAB28242EDDB009B9BB293FB5F
:1036A000F0F31B4C2380019B9BB293FBF0F36380F0
:1036B000029B9BB293FBF0F3A3801EBD7CB500245C
:1036C000002514A103C9CDE9000114480078FF28A2
:1036D0001BD10020114908701420FFF7C5FF00BF5F
:1036E00011E00B4830F814508DF80140280A8DF88D
:1036F0000200E8B28DF80300052269460848FFF78A
:1037000092FA601CC4B2032CEBDB7CBD6600002087
:103710007E000020FFFFFFFFFF0000006C00002084
:1037200000480040704770477047754600F028F821
:10373000AE4605006946534620F00700854618B09E
:1037400020B5FCF745FFBDE820404FF000064FF0E4
:1037500000074FF000084FF0000B21F00701AC46C6
:10376000ACE8C009ACE8C009ACE8C009ACE8C009E5
:103770008D4670470446AFF300802046FCF71FFDDE
:10378000004870472C01002001491820ABBEFEE71D
:103790002600020070470000B83700080000002033
:1037A000840000006C0100083C3800088400002000
:1037B0000C07000088010008000000000000000065
:1037C0007EFF060E000000EF7EFF0606000015EFEC
:1037D0007EFF0603000001EF7EFF0617000001EFE9
:1037E0007EFF0608000001EF00A24A04000000006E
:1037F00000000000010203040607080900000000A1
:103800000102030401020304060708090204060872
:1038100000000000000000000000000000000000A8
:103820000000000000000000000000000000000098
:0C3830000000000000000000000000008C
:0400000508000131BD
:00000001FF
